{
  "contractName": "CollectionConsent",
  "abi": [
    {
      "inputs": [
        {
          "internalType": "address",
          "name": "_dataController",
          "type": "address"
        },
        {
          "internalType": "address[]",
          "name": "_recipients",
          "type": "address[]"
        },
        {
          "internalType": "uint256",
          "name": "_data",
          "type": "uint256"
        },
        {
          "internalType": "uint256",
          "name": "duration",
          "type": "uint256"
        },
        {
          "internalType": "uint256[]",
          "name": "_defaultPurposes",
          "type": "uint256[]"
        }
      ],
      "payable": false,
      "stateMutability": "nonpayable",
      "type": "constructor"
    },
    {
      "constant": false,
      "inputs": [
        {
          "internalType": "address",
          "name": "processor",
          "type": "address"
        },
        {
          "internalType": "uint256",
          "name": "processingPurpose",
          "type": "uint256"
        },
        {
          "internalType": "uint256",
          "name": "_data",
          "type": "uint256"
        },
        {
          "internalType": "uint256",
          "name": "duration",
          "type": "uint256"
        }
      ],
      "name": "newPurpose",
      "outputs": [],
      "payable": false,
      "stateMutability": "nonpayable",
      "type": "function"
    },
    {
      "constant": false,
      "inputs": [],
      "name": "grantConsent",
      "outputs": [],
      "payable": false,
      "stateMutability": "nonpayable",
      "type": "function"
    },
    {
      "constant": false,
      "inputs": [],
      "name": "revokeConsent",
      "outputs": [],
      "payable": false,
      "stateMutability": "nonpayable",
      "type": "function"
    },
    {
      "constant": true,
      "inputs": [],
      "name": "verify",
      "outputs": [
        {
          "internalType": "bool",
          "name": "",
          "type": "bool"
        }
      ],
      "payable": false,
      "stateMutability": "view",
      "type": "function"
    },
    {
      "constant": false,
      "inputs": [],
      "name": "eraseData",
      "outputs": [],
      "payable": false,
      "stateMutability": "nonpayable",
      "type": "function"
    },
    {
      "constant": false,
      "inputs": [
        {
          "internalType": "uint256",
          "name": "_data",
          "type": "uint256"
        }
      ],
      "name": "modifyData",
      "outputs": [],
      "payable": false,
      "stateMutability": "nonpayable",
      "type": "function"
    },
    {
      "constant": false,
      "inputs": [
        {
          "internalType": "uint256",
          "name": "purpose",
          "type": "uint256"
        }
      ],
      "name": "revokeConsentPurpose",
      "outputs": [],
      "payable": false,
      "stateMutability": "nonpayable",
      "type": "function"
    },
    {
      "constant": false,
      "inputs": [
        {
          "internalType": "address",
          "name": "processor",
          "type": "address"
        }
      ],
      "name": "revokeConsentProcessor",
      "outputs": [],
      "payable": false,
      "stateMutability": "nonpayable",
      "type": "function"
    },
    {
      "constant": true,
      "inputs": [],
      "name": "getData",
      "outputs": [
        {
          "internalType": "uint256",
          "name": "",
          "type": "uint256"
        }
      ],
      "payable": false,
      "stateMutability": "view",
      "type": "function"
    },
    {
      "constant": true,
      "inputs": [
        {
          "internalType": "address",
          "name": "processor",
          "type": "address"
        }
      ],
      "name": "getProcessingConsentSC",
      "outputs": [
        {
          "internalType": "address",
          "name": "",
          "type": "address"
        }
      ],
      "payable": false,
      "stateMutability": "view",
      "type": "function"
    },
    {
      "constant": true,
      "inputs": [],
      "name": "getAllProcessors",
      "outputs": [
        {
          "internalType": "address[]",
          "name": "",
          "type": "address[]"
        }
      ],
      "payable": false,
      "stateMutability": "view",
      "type": "function"
    }
  ],
  "bytecode": "0x60806040523480156200001157600080fd5b506040516200381438038062003814833981810160405260a08110156200003757600080fd5b8101908080519060200190929190805160405193929190846401000000008211156200006257600080fd5b838201915060208201858111156200007957600080fd5b82518660208202830111640100000000821117156200009757600080fd5b8083526020830192505050908051906020019060200280838360005b83811015620000d0578082015181840152602081019050620000b3565b505050509050016040526020018051906020019092919080519060200190929190805160405193929190846401000000008211156200010e57600080fd5b838201915060208201858111156200012557600080fd5b82518660208202830111640100000000821117156200014357600080fd5b8083526020830192505050908051906020019060200280838360005b838110156200017c5780820151818401526020810190506200015f565b50505050905001604052505050336000806101000a81548173ffffffffffffffffffffffffffffffffffffffff021916908373ffffffffffffffffffffffffffffffffffffffff16021790555084600160006101000a81548173ffffffffffffffffffffffffffffffffffffffff021916908373ffffffffffffffffffffffffffffffffffffffff160217905550836002908051906020019062000222929190620002d6565b508260038190555042600481905550816004540160058190555060008090505b81518110156200029a576001600860008484815181106200025f57fe5b6020026020010151815260200190815260200160002060006101000a81548160ff021916908315150217905550808060010191505062000242565b506040518060400160405280600160ff168152602001600060ff168152506006906002620002ca92919062000365565b5050505050506200047f565b82805482825590600052602060002090810192821562000352579160200282015b82811115620003515782518260006101000a81548173ffffffffffffffffffffffffffffffffffffffff021916908373ffffffffffffffffffffffffffffffffffffffff16021790555091602001919060010190620002f7565b5b50905062000361919062000406565b5090565b826002601f01602090048101928215620003f35791602002820160005b83821115620003c257835183826101000a81548160ff021916908360ff160217905550926020019260010160208160000104928301926001030262000382565b8015620003f15782816101000a81549060ff0219169055600101602081600001049283019260010302620003c2565b505b5090506200040291906200044c565b5090565b6200044991905b808211156200044557600081816101000a81549073ffffffffffffffffffffffffffffffffffffffff0219169055506001016200040d565b5090565b90565b6200047c91905b808211156200047857600081816101000a81549060ff02191690555060010162000453565b5090565b90565b613385806200048f6000396000f3fe608060405234801561001057600080fd5b50600436106100a95760003560e01c80636fac0fe9116100715780636fac0fe9146101ea578063af3368f2146101f4578063d17ff23214610253578063d6fc315114610281578063fc735e99146102c5578063ff4c4d54146102e7576100a9565b806308b78cda146100ae57806311adf753146100b85780631a4856361461011a578063231390e0146101485780633bc5de30146101cc575b600080fd5b6100b66102f1565b005b610118600480360360808110156100ce57600080fd5b81019080803573ffffffffffffffffffffffffffffffffffffffff1690602001909291908035906020019092919080359060200190929190803590602001909291905050506103b3565b005b6101466004803603602081101561013057600080fd5b8101908080359060200190929190505050610b16565b005b61018a6004803603602081101561015e57600080fd5b81019080803573ffffffffffffffffffffffffffffffffffffffff169060200190929190505050610bc5565b604051808273ffffffffffffffffffffffffffffffffffffffff1673ffffffffffffffffffffffffffffffffffffffff16815260200191505060405180910390f35b6101d4610cd6565b6040518082815260200191505060405180910390f35b6101f2610ce0565b005b6101fc610ef1565b6040518080602001828103825283818151815260200191508051906020019060200280838360005b8381101561023f578082015181840152602081019050610224565b505050509050019250505060405180910390f35b61027f6004803603602081101561026957600080fd5b8101908080359060200190929190505050610f7f565b005b6102c36004803603602081101561029757600080fd5b81019080803573ffffffffffffffffffffffffffffffffffffffff169060200190929190505050611272565b005b6102cd6114d9565b604051808215151515815260200191505060405180910390f35b6102ef611564565b005b6000809054906101000a900473ffffffffffffffffffffffffffffffffffffffff1673ffffffffffffffffffffffffffffffffffffffff163373ffffffffffffffffffffffffffffffffffffffff1614610396576040517f08c379a000000000000000000000000000000000000000000000000000000000815260040180806020018281038252603381526020018061321a6033913960400191505060405180910390fd5b6001600760006101000a81548160ff021916908315150217905550565b6000429050600060066000600281106103c857fe5b602091828204019190069054906101000a900460ff1660ff16141580156104165750600060066001600281106103fa57fe5b602091828204019190069054906101000a900460ff1660ff1614155b801561042457506004548110155b801561043257506005548111155b6104a4576040517f08c379a000000000000000000000000000000000000000000000000000000000815260040180806020018281038252601f8152602001807f436f6e73656e7420636f6e737472616374206973206e6f742076616c69642e0081525060200191505060405180910390fd5b600160009054906101000a900473ffffffffffffffffffffffffffffffffffffffff1673ffffffffffffffffffffffffffffffffffffffff163373ffffffffffffffffffffffffffffffffffffffff161461054a576040517f08c379a00000000000000000000000000000000000000000000000000000000081526004018080602001828103825260368152602001806131e46036913960400191505060405180910390fd5b600960008673ffffffffffffffffffffffffffffffffffffffff1673ffffffffffffffffffffffffffffffffffffffff16815260200190815260200160002060009054906101000a900460ff16156105ed576040517f08c379a00000000000000000000000000000000000000000000000000000000081526004018080602001828103825260238152602001806132db6023913960400191505060405180910390fd5b6000600a60008773ffffffffffffffffffffffffffffffffffffffff1673ffffffffffffffffffffffffffffffffffffffff16815260200190815260200160002060000160009054906101000a900460ff1661089257600160009054906101000a900473ffffffffffffffffffffffffffffffffffffffff166000809054906101000a900473ffffffffffffffffffffffffffffffffffffffff168760405161069590611775565b808473ffffffffffffffffffffffffffffffffffffffff1673ffffffffffffffffffffffffffffffffffffffff1681526020018373ffffffffffffffffffffffffffffffffffffffff1673ffffffffffffffffffffffffffffffffffffffff1681526020018273ffffffffffffffffffffffffffffffffffffffff1673ffffffffffffffffffffffffffffffffffffffff1681526020019350505050604051809103906000f08015801561074d573d6000803e3d6000fd5b50905060405180604001604052806001151581526020018273ffffffffffffffffffffffffffffffffffffffff16815250600a60008873ffffffffffffffffffffffffffffffffffffffff1673ffffffffffffffffffffffffffffffffffffffff16815260200190815260200160002060008201518160000160006101000a81548160ff02191690831515021790555060208201518160000160016101000a81548173ffffffffffffffffffffffffffffffffffffffff021916908373ffffffffffffffffffffffffffffffffffffffff160217905550905050600b8690806001815401808255809150509060018203906000526020600020016000909192909190916101000a81548173ffffffffffffffffffffffffffffffffffffffff021916908373ffffffffffffffffffffffffffffffffffffffff160217905550506108f8565b600a60008773ffffffffffffffffffffffffffffffffffffffff1673ffffffffffffffffffffffffffffffffffffffff16815260200190815260200160002060000160019054906101000a900473ffffffffffffffffffffffffffffffffffffffff1690505b8073ffffffffffffffffffffffffffffffffffffffff16632a22288e866040518263ffffffff1660e01b81526004018082815260200191505060206040518083038186803b15801561094957600080fd5b505afa15801561095d573d6000803e3d6000fd5b505050506040513d602081101561097357600080fd5b8101908080519060200190929190505050156109da576040517f08c379a000000000000000000000000000000000000000000000000000000000815260040180806020018281038252604f81526020018061328c604f913960600191505060405180910390fd5b6008600086815260200190815260200160002060009054906101000a900460ff1615610a89578073ffffffffffffffffffffffffffffffffffffffff16632178543c86868660016040518563ffffffff1660e01b815260040180858152602001848152602001838152602001828152602001945050505050600060405180830381600087803b158015610a6c57600080fd5b505af1158015610a80573d6000803e3d6000fd5b50505050610b0e565b8073ffffffffffffffffffffffffffffffffffffffff16632178543c86868660006040518563ffffffff1660e01b815260040180858152602001848152602001838152602001828152602001945050505050600060405180830381600087803b158015610af557600080fd5b505af1158015610b09573d6000803e3d6000fd5b505050505b505050505050565b6000809054906101000a900473ffffffffffffffffffffffffffffffffffffffff1673ffffffffffffffffffffffffffffffffffffffff163373ffffffffffffffffffffffffffffffffffffffff1614610bbb576040517f08c379a000000000000000000000000000000000000000000000000000000000815260040180806020018281038252603381526020018061321a6033913960400191505060405180910390fd5b8060038190555050565b6000600a60008373ffffffffffffffffffffffffffffffffffffffff1673ffffffffffffffffffffffffffffffffffffffff16815260200190815260200160002060000160009054906101000a900460ff16610c6c576040517f08c379a000000000000000000000000000000000000000000000000000000000815260040180806020018281038252602f8152602001806132fe602f913960400191505060405180910390fd5b600a60008373ffffffffffffffffffffffffffffffffffffffff1673ffffffffffffffffffffffffffffffffffffffff16815260200190815260200160002060000160019054906101000a900473ffffffffffffffffffffffffffffffffffffffff169050919050565b6000600354905090565b600160009054906101000a900473ffffffffffffffffffffffffffffffffffffffff1673ffffffffffffffffffffffffffffffffffffffff163273ffffffffffffffffffffffffffffffffffffffff161480610d8857506000809054906101000a900473ffffffffffffffffffffffffffffffffffffffff1673ffffffffffffffffffffffffffffffffffffffff163273ffffffffffffffffffffffffffffffffffffffff16145b610ddd576040517f08c379a000000000000000000000000000000000000000000000000000000000815260040180806020018281038252602481526020018061332d6024913960400191505060405180910390fd5b6000809054906101000a900473ffffffffffffffffffffffffffffffffffffffff1673ffffffffffffffffffffffffffffffffffffffff163273ffffffffffffffffffffffffffffffffffffffff161415610e675760016006600060028110610e4257fe5b602091828204019190066101000a81548160ff021916908360ff160217905550610eef565b600160009054906101000a900473ffffffffffffffffffffffffffffffffffffffff1673ffffffffffffffffffffffffffffffffffffffff163273ffffffffffffffffffffffffffffffffffffffff161415610eee5760016006600160028110610ecd57fe5b602091828204019190066101000a81548160ff021916908360ff1602179055505b5b565b6060600b805480602002602001604051908101604052809291908181526020018280548015610f7557602002820191906000526020600020905b8160009054906101000a900473ffffffffffffffffffffffffffffffffffffffff1673ffffffffffffffffffffffffffffffffffffffff1681526020019060010190808311610f2b575b5050505050905090565b6000809054906101000a900473ffffffffffffffffffffffffffffffffffffffff1673ffffffffffffffffffffffffffffffffffffffff163373ffffffffffffffffffffffffffffffffffffffff1614611024576040517f08c379a000000000000000000000000000000000000000000000000000000000815260040180806020018281038252603381526020018061321a6033913960400191505060405180910390fd5b600080600090505b600b8054905081101561124157600b818154811061104657fe5b9060005260206000200160009054906101000a900473ffffffffffffffffffffffffffffffffffffffff169150600a60008373ffffffffffffffffffffffffffffffffffffffff1673ffffffffffffffffffffffffffffffffffffffff16815260200190815260200160002060000160019054906101000a900473ffffffffffffffffffffffffffffffffffffffff1673ffffffffffffffffffffffffffffffffffffffff1663b7a7af99846040518263ffffffff1660e01b81526004018082815260200191505060206040518083038186803b15801561112657600080fd5b505afa15801561113a573d6000803e3d6000fd5b505050506040513d602081101561115057600080fd5b81019080805190602001909291905050501561123457600a60008373ffffffffffffffffffffffffffffffffffffffff1673ffffffffffffffffffffffffffffffffffffffff16815260200190815260200160002060000160019054906101000a900473ffffffffffffffffffffffffffffffffffffffff1673ffffffffffffffffffffffffffffffffffffffff166316a0042c846040518263ffffffff1660e01b815260040180828152602001915050600060405180830381600087803b15801561121b57600080fd5b505af115801561122f573d6000803e3d6000fd5b505050505b808060010191505061102c565b5060006008600084815260200190815260200160002060006101000a81548160ff0219169083151502179055505050565b6000809054906101000a900473ffffffffffffffffffffffffffffffffffffffff1673ffffffffffffffffffffffffffffffffffffffff163373ffffffffffffffffffffffffffffffffffffffff1614611317576040517f08c379a000000000000000000000000000000000000000000000000000000000815260040180806020018281038252603381526020018061321a6033913960400191505060405180910390fd5b600a60008273ffffffffffffffffffffffffffffffffffffffff1673ffffffffffffffffffffffffffffffffffffffff16815260200190815260200160002060000160009054906101000a900460ff166113bc576040517f08c379a000000000000000000000000000000000000000000000000000000000815260040180806020018281038252603f81526020018061324d603f913960400191505060405180910390fd5b600a60008273ffffffffffffffffffffffffffffffffffffffff1673ffffffffffffffffffffffffffffffffffffffff16815260200190815260200160002060000160019054906101000a900473ffffffffffffffffffffffffffffffffffffffff1673ffffffffffffffffffffffffffffffffffffffff1663b6f96af26040518163ffffffff1660e01b8152600401600060405180830381600087803b15801561146657600080fd5b505af115801561147a573d6000803e3d6000fd5b505050506001600960008373ffffffffffffffffffffffffffffffffffffffff1673ffffffffffffffffffffffffffffffffffffffff16815260200190815260200160002060006101000a81548160ff02191690831515021790555050565b60008042905060008060066000600281106114f057fe5b602091828204019190069054906101000a900460ff1660ff161415801561153e57506000600660016002811061152257fe5b602091828204019190069054906101000a900460ff1660ff1614155b801561154c57506004548210155b801561155a57506005548211155b9050809250505090565b600160009054906101000a900473ffffffffffffffffffffffffffffffffffffffff1673ffffffffffffffffffffffffffffffffffffffff163273ffffffffffffffffffffffffffffffffffffffff16148061160c57506000809054906101000a900473ffffffffffffffffffffffffffffffffffffffff1673ffffffffffffffffffffffffffffffffffffffff163273ffffffffffffffffffffffffffffffffffffffff16145b611661576040517f08c379a000000000000000000000000000000000000000000000000000000000815260040180806020018281038252602481526020018061332d6024913960400191505060405180910390fd5b6000809054906101000a900473ffffffffffffffffffffffffffffffffffffffff1673ffffffffffffffffffffffffffffffffffffffff163273ffffffffffffffffffffffffffffffffffffffff1614156116eb57600060066000600281106116c657fe5b602091828204019190066101000a81548160ff021916908360ff160217905550611773565b600160009054906101000a900473ffffffffffffffffffffffffffffffffffffffff1673ffffffffffffffffffffffffffffffffffffffff163273ffffffffffffffffffffffffffffffffffffffff161415611772576000600660016002811061175157fe5b602091828204019190066101000a81548160ff021916908360ff1602179055505b5b565b611a61806117838339019056fe608060405234801561001057600080fd5b50604051611a61380380611a618339818101604052606081101561003357600080fd5b810190808051906020019092919080519060200190929190805190602001909291905050508273ffffffffffffffffffffffffffffffffffffffff163273ffffffffffffffffffffffffffffffffffffffff16146100dc576040517f08c379a0000000000000000000000000000000000000000000000000000000008152600401808060200182810382526036815260200180611a2b6036913960400191505060405180910390fd5b336000806101000a81548173ffffffffffffffffffffffffffffffffffffffff021916908373ffffffffffffffffffffffffffffffffffffffff16021790555082600260006101000a81548173ffffffffffffffffffffffffffffffffffffffff021916908373ffffffffffffffffffffffffffffffffffffffff16021790555081600160006101000a81548173ffffffffffffffffffffffffffffffffffffffff021916908373ffffffffffffffffffffffffffffffffffffffff16021790555080600360006101000a81548173ffffffffffffffffffffffffffffffffffffffff021916908373ffffffffffffffffffffffffffffffffffffffff16021790555050505061183a806101f16000396000f3fe608060405234801561001057600080fd5b50600436106100cf5760003560e01c80633018205f1161008c5780634265c707116100665780634265c7071461032f5780638753367f14610379578063b6f96af2146103bf578063b7a7af99146103c9576100cf565b80633018205f1461024e578063373eed8d146102985780633a728745146102d0576100cf565b80630561bac3146100d457806316a0042c1461011e5780632178543c1461014c5780632a22288e146101985780632a26de85146101de5780632e6473701461020c575b600080fd5b6100dc61040f565b604051808273ffffffffffffffffffffffffffffffffffffffff1673ffffffffffffffffffffffffffffffffffffffff16815260200191505060405180910390f35b61014a6004803603602081101561013457600080fd5b8101908080359060200190929190505050610439565b005b6101966004803603608081101561016257600080fd5b81019080803590602001909291908035906020019092919080359060200190929190803590602001909291905050506107e6565b005b6101c4600480360360208110156101ae57600080fd5b8101908080359060200190929190505050610adf565b604051808215151515815260200191505060405180910390f35b61020a600480360360208110156101f457600080fd5b8101908080359060200190929190505050610b1d565b005b6102386004803603602081101561022257600080fd5b8101908080359060200190929190505050610eca565b6040518082815260200191505060405180910390f35b610256610eea565b604051808273ffffffffffffffffffffffffffffffffffffffff1673ffffffffffffffffffffffffffffffffffffffff16815260200191505060405180910390f35b6102ce600480360360408110156102ae57600080fd5b810190808035906020019092919080359060200190929190505050610f14565b005b6102d8610fd9565b6040518080602001828103825283818151815260200191508051906020019060200280838360005b8381101561031b578082015181840152602081019050610300565b505050509050019250505060405180910390f35b610337611031565b604051808273ffffffffffffffffffffffffffffffffffffffff1673ffffffffffffffffffffffffffffffffffffffff16815260200191505060405180910390f35b6103a56004803603602081101561038f57600080fd5b810190808035906020019092919050505061105b565b604051808215151515815260200191505060405180910390f35b6103c76111dd565b005b6103f5600480360360208110156103df57600080fd5b81019080803590602001909291905050506114c0565b604051808215151515815260200191505060405180910390f35b6000600160009054906101000a900473ffffffffffffffffffffffffffffffffffffffff16905090565b600260009054906101000a900473ffffffffffffffffffffffffffffffffffffffff1673ffffffffffffffffffffffffffffffffffffffff163273ffffffffffffffffffffffffffffffffffffffff1614806104e25750600160009054906101000a900473ffffffffffffffffffffffffffffffffffffffff1673ffffffffffffffffffffffffffffffffffffffff163273ffffffffffffffffffffffffffffffffffffffff16145b8061053a5750600360009054906101000a900473ffffffffffffffffffffffffffffffffffffffff1673ffffffffffffffffffffffffffffffffffffffff163273ffffffffffffffffffffffffffffffffffffffff16145b61058f576040517f08c379a00000000000000000000000000000000000000000000000000000000081526004018080602001828103825260248152602001806117e26024913960400191505060405180910390fd5b6004600082815260200190815260200160002060000160009054906101000a900460ff16610608576040517f08c379a000000000000000000000000000000000000000000000000000000000815260040180806020018281038252602381526020018061173a6023913960400191505060405180910390fd5b600260009054906101000a900473ffffffffffffffffffffffffffffffffffffffff1673ffffffffffffffffffffffffffffffffffffffff163273ffffffffffffffffffffffffffffffffffffffff1614156106a75760006004600083815260200190815260200160002060040160006003811061068257fe5b602091828204019190066101000a81548160ff021916908360ff1602179055506107e3565b600160009054906101000a900473ffffffffffffffffffffffffffffffffffffffff1673ffffffffffffffffffffffffffffffffffffffff163273ffffffffffffffffffffffffffffffffffffffff1614156107465760006004600083815260200190815260200160002060040160016003811061072157fe5b602091828204019190066101000a81548160ff021916908360ff1602179055506107e2565b600360009054906101000a900473ffffffffffffffffffffffffffffffffffffffff1673ffffffffffffffffffffffffffffffffffffffff163273ffffffffffffffffffffffffffffffffffffffff1614156107e1576000600460008381526020019081526020016000206004016002600381106107c057fe5b602091828204019190066101000a81548160ff021916908360ff1602179055505b5b5b50565b6000809054906101000a900473ffffffffffffffffffffffffffffffffffffffff1673ffffffffffffffffffffffffffffffffffffffff163373ffffffffffffffffffffffffffffffffffffffff161461088b576040517f08c379a000000000000000000000000000000000000000000000000000000000815260040180806020018281038252606381526020018061177f6063913960800191505060405180910390fd5b600260009054906101000a900473ffffffffffffffffffffffffffffffffffffffff1673ffffffffffffffffffffffffffffffffffffffff163273ffffffffffffffffffffffffffffffffffffffff1614610931576040517f08c379a000000000000000000000000000000000000000000000000000000000815260040180806020018281038252603b8152602001806116aa603b913960400191505060405180910390fd5b6004600085815260200190815260200160002060000160009054906101000a900460ff16156109ab576040517f08c379a000000000000000000000000000000000000000000000000000000000815260040180806020018281038252602281526020018061175d6022913960400191505060405180910390fd5b6109b36115bd565b60018214156109ea576040518060600160405280600160ff168152602001600160ff168152602001600060ff168152509050610a14565b6040518060600160405280600160ff168152602001600060ff168152602001600060ff1681525090505b6040518060a001604052806001151581526020018581526020014281526020018442018152602001828152506004600087815260200190815260200160002060008201518160000160006101000a81548160ff021916908315150217905550602082015181600101556040820151816002015560608201518160030155608082015181600401906003610aa89291906115df565b5090505060058590806001815401808255809150509060018203906000526020600020016000909192909190915055505050505050565b60006004600083815260200190815260200160002060000160009054906101000a900460ff1615610b135760019050610b18565b600090505b919050565b600260009054906101000a900473ffffffffffffffffffffffffffffffffffffffff1673ffffffffffffffffffffffffffffffffffffffff163273ffffffffffffffffffffffffffffffffffffffff161480610bc65750600160009054906101000a900473ffffffffffffffffffffffffffffffffffffffff1673ffffffffffffffffffffffffffffffffffffffff163273ffffffffffffffffffffffffffffffffffffffff16145b80610c1e5750600360009054906101000a900473ffffffffffffffffffffffffffffffffffffffff1673ffffffffffffffffffffffffffffffffffffffff163273ffffffffffffffffffffffffffffffffffffffff16145b610c73576040517f08c379a00000000000000000000000000000000000000000000000000000000081526004018080602001828103825260248152602001806117e26024913960400191505060405180910390fd5b6004600082815260200190815260200160002060000160009054906101000a900460ff16610cec576040517f08c379a000000000000000000000000000000000000000000000000000000000815260040180806020018281038252602381526020018061173a6023913960400191505060405180910390fd5b600260009054906101000a900473ffffffffffffffffffffffffffffffffffffffff1673ffffffffffffffffffffffffffffffffffffffff163273ffffffffffffffffffffffffffffffffffffffff161415610d8b57600160046000838152602001908152602001600020600401600060038110610d6657fe5b602091828204019190066101000a81548160ff021916908360ff160217905550610ec7565b600160009054906101000a900473ffffffffffffffffffffffffffffffffffffffff1673ffffffffffffffffffffffffffffffffffffffff163273ffffffffffffffffffffffffffffffffffffffff161415610e2a57600160046000838152602001908152602001600020600401600160038110610e0557fe5b602091828204019190066101000a81548160ff021916908360ff160217905550610ec6565b600360009054906101000a900473ffffffffffffffffffffffffffffffffffffffff1673ffffffffffffffffffffffffffffffffffffffff163273ffffffffffffffffffffffffffffffffffffffff161415610ec557600160046000838152602001908152602001600020600401600260038110610ea457fe5b602091828204019190066101000a81548160ff021916908360ff1602179055505b5b5b50565b600060046000838152602001908152602001600020600101549050919050565b6000600260009054906101000a900473ffffffffffffffffffffffffffffffffffffffff16905090565b600160009054906101000a900473ffffffffffffffffffffffffffffffffffffffff1673ffffffffffffffffffffffffffffffffffffffff163273ffffffffffffffffffffffffffffffffffffffff1614610fba576040517f08c379a00000000000000000000000000000000000000000000000000000000081526004018080602001828103825260338152602001806116e56033913960400191505060405180910390fd5b8060046000848152602001908152602001600020600101819055505050565b6060600580548060200260200160405190810160405280929190818152602001828054801561102757602002820191906000526020600020905b815481526020019060010190808311611013575b5050505050905090565b6000600360009054906101000a900473ffffffffffffffffffffffffffffffffffffffff16905090565b60006004600083815260200190815260200160002060000160009054906101000a900460ff166110d6576040517f08c379a000000000000000000000000000000000000000000000000000000000815260040180806020018281038252602381526020018061173a6023913960400191505060405180910390fd5b60004290506000806004600086815260200190815260200160002060040160026003811061110057fe5b602091828204019190069054906101000a900460ff166004600087815260200190815260200160002060040160016003811061113857fe5b602091828204019190069054906101000a900460ff166004600088815260200190815260200160002060040160006003811061117057fe5b602091828204019190069054906101000a900460ff16161660ff16141580156111af575060046000858152602001908152602001600020600201548210155b80156111d1575060046000858152602001908152602001600020600301548211155b90508092505050919050565b600260009054906101000a900473ffffffffffffffffffffffffffffffffffffffff1673ffffffffffffffffffffffffffffffffffffffff163273ffffffffffffffffffffffffffffffffffffffff1614806112865750600160009054906101000a900473ffffffffffffffffffffffffffffffffffffffff1673ffffffffffffffffffffffffffffffffffffffff163273ffffffffffffffffffffffffffffffffffffffff16145b806112de5750600360009054906101000a900473ffffffffffffffffffffffffffffffffffffffff1673ffffffffffffffffffffffffffffffffffffffff163273ffffffffffffffffffffffffffffffffffffffff16145b611333576040517f08c379a00000000000000000000000000000000000000000000000000000000081526004018080602001828103825260248152602001806117e26024913960400191505060405180910390fd5b600060058054905011611391576040517f08c379a00000000000000000000000000000000000000000000000000000000081526004018080602001828103825260228152602001806117186022913960400191505060405180910390fd5b600260009054906101000a900473ffffffffffffffffffffffffffffffffffffffff1673ffffffffffffffffffffffffffffffffffffffff163273ffffffffffffffffffffffffffffffffffffffff1614156113f6576113f1600061153f565b6114be565b600160009054906101000a900473ffffffffffffffffffffffffffffffffffffffff1673ffffffffffffffffffffffffffffffffffffffff163273ffffffffffffffffffffffffffffffffffffffff16141561145b57611456600161153f565b6114bd565b600360009054906101000a900473ffffffffffffffffffffffffffffffffffffffff1673ffffffffffffffffffffffffffffffffffffffff163273ffffffffffffffffffffffffffffffffffffffff1614156114bc576114bb600261153f565b5b5b5b565b6000806004600084815260200190815260200160002060000160009054906101000a900460ff166114f45760009050611536565b60006004600085815260200190815260200160002060040160016003811061151857fe5b602091828204019190069054906101000a900460ff1660ff16141590505b80915050919050565b60008090505b6005805490508110156115b9576000600460006005848154811061156557fe5b90600052602060002001548152602001908152602001600020600401836003811061158c57fe5b602091828204019190066101000a81548160ff021916908360ff1602179055508080600101915050611545565b5050565b6040518060600160405280600390602082028038833980820191505090505090565b826003601f016020900481019282156116685791602002820160005b8382111561163957835183826101000a81548160ff021916908360ff16021790555092602001926001016020816000010492830192600103026115fb565b80156116665782816101000a81549060ff0219169055600101602081600001049283019260010302611639565b505b5090506116759190611679565b5090565b6116a691905b808211156116a257600081816101000a81549060ff02191690555060010161167f565b5090565b9056fe4f6e6c7920636f6e74726f6c6c65722063616e206164642061206e65772050726f63657373696e6720707572706f736520746f20746869732053434f6e6c79207468652064617461205375626a65637420697320616c6c6f77656420746f20646f207468697320616374696f6e2e4e6f2050726f63657373696e6720707572706f736573206f6e20746869732053432e50726f63657373696e6720707572706f736520646f6573206e6f74206578697374732e50726f63657373696e6720707572706f736520616c7265616479206578697374732e4e65772050726f63657373696e6720707572706f73652063616e206f6e6c792062652061646465642066726f6d2074686520436f6e73656e742053432066726f6d207768696368207468697320507572706f73652053432077617320637265617465644163746f72206e6f7420616c6c6f77656420746f20646f207468697320616374696f6e2ea265627a7a72315820d617c02aebedd6be44e70634a2bb17d78da27fdb50213c1a000d81f3eb3fa44364736f6c634300051000325472616e73616374696f6e2073656e64657220646f6573206e6f74206d617463687420776974682074686520436f6e74726f6c6c65724f6e6c7920746865206461746120436f6e74726f6c6c657220697320616c6c6f77656420746f20646f207468697320616374696f6e2e4f6e6c79207468652064617461205375626a65637420697320616c6c6f77656420746f20646f207468697320616374696f6e2e50726f636573736f72206973206e6f742070726f63657373696e67204453277320706572736f6e616c206461746120666f7220616e7920707572706f73652e50726f636573736f722068617320616c72656164792072657175657374656420746f2070726f63657373204453277320706572736f6e616c206461746120666f72207468697320707572706f73652e546869732070726f636573736f7220697320696e2074686520426c61636b6c6973742e50726f636573736f7220686173206e6f742072657175657374656420746f2070726f6365737320445327732050442e4163746f72206e6f7420616c6c6f77656420746f20646f207468697320616374696f6e2ea265627a7a7231582047e2dd7493d63aa692b1c4b28f4806d7c1e178299658e96b1c6a57ece73d609264736f6c63430005100032",
  "source": "pragma solidity >=0.4.22 <0.7.0;\r\n\r\nimport \"./ProcessingConsent.sol\";\r\n\r\n/** \r\n * @title CollectionConsent\r\n * @dev Holds the explicit consent given to a collector to get personal data from a user\r\n * \r\n * ISSUE: transaction function can't return a value even if declared in the definition\r\n * https://ethereum.stackexchange.com/questions/40730/why-is-web3j-java-not-generating-correct-return-types-for-my-contract\r\n */\r\ncontract CollectionConsent {\r\n   \r\n    //Identities of the actors\r\n    address private dataSubject;\r\n    address private controller;\r\n    address[] private recipients;\r\n\r\n    uint256 data;\r\n\r\n    //Consent lifetime\r\n    uint256 beginningDate;\r\n    uint256 expirationDate;\r\n\r\n    //Valid flag\r\n    uint8[2] private valid;\r\n\r\n    //Erasure flag\r\n    bool private erasure;\r\n\r\n    mapping( uint => bool ) private defaultPurposes;\r\n    mapping( address => bool ) private processorsBlacklist;\r\n\r\n    //ProcessingConsentContracts\r\n    //Struct to store all processors that process DS's PD.   \r\n    struct ProcessingConsentStruct{\r\n        bool exists;\r\n        address processingConsentContractAddress;\r\n    }\r\n    //mapping: processor address => processing consent contract\r\n    mapping( address => ProcessingConsentStruct ) private processingConsentContracts;\r\n\r\n    //processors that has requested to proces DS's personal data for any reason\r\n    address[] private processors;\r\n    \r\n\r\n    /** \r\n     * @dev Create a new consent contract between a Data Subject and a Controller.\r\n     * @param _dataController data controller address\r\n     * @param _recipients list of the recipients that will hold the personal data of the Subject\r\n     * @param duration validity expiration time of the contract (in seconds)\r\n     * @param _defaultPurposes for which DS must do not give his explicit consent to process his PD\r\n     */\r\n    constructor( address _dataController, address[] memory _recipients, uint _data, uint duration, uint[] memory _defaultPurposes ) public {\r\n        dataSubject = msg.sender;\r\n        controller = _dataController;\r\n        recipients = _recipients;\r\n        data = _data;\r\n        beginningDate = block.timestamp;\r\n        expirationDate = beginningDate + duration;\r\n        //expirationDate = beginningDate + (duration * 1 days); //Same in days\r\n\r\n        for( uint i=0; i < _defaultPurposes.length; i++ ){\r\n            defaultPurposes[ _defaultPurposes[i] ] = true;\r\n        }\r\n        \r\n        valid = [1,0];\r\n    }\r\n    \r\n    \r\n    //NEEDS A REFACTOR TO BECOME FOR EFFICIENT\r\n    /** \r\n     * @dev Create a new processing purpose for processor using dataSubject data and supervised by controller.\r\n     * @param processor data processor address\r\n     * @param processingPurpose processing purpose\r\n     * @param duration validity expiration time of the contract (in seconds)\r\n     */\r\n    function newPurpose( address processor, uint processingPurpose, uint _data, uint duration ) external contractValidity onlyController {\r\n        \r\n        //Processor not in the processors Blacklist\r\n        require( !processorsBlacklist[ processor ], \"This processor is in the Blacklist.\");\r\n        \r\n        //Check if exists a Processing Consent SC for this processor, if not, create a new one.\r\n        ProcessingConsent processingConsentContract;\r\n        if( !processingConsentContracts[processor].exists ){\r\n            processingConsentContract = new ProcessingConsent( controller, dataSubject, processor );\r\n            processingConsentContracts[processor] = ProcessingConsentStruct( true, address(processingConsentContract) );\r\n\r\n            processors.push( processor );\r\n        }\r\n        else{\r\n            processingConsentContract = ProcessingConsent( processingConsentContracts[processor].processingConsentContractAddress );\r\n        }\r\n\r\n        //check if DP has already requested consent for this processing purpose\r\n        require( !processingConsentContract.existsPurpose( processingPurpose ), \"Processor has already requested to process DS's personal data for this purpose.\" );\r\n\r\n        //need to check that Processing data is not more permessive than Collection data.\r\n\r\n\r\n        //add now processing purpose to the ProcessingConsent SC.\r\n        //check if processing purpose is on DS's default processing purposes.\r\n        if( defaultPurposes[ processingPurpose ] )\r\n            processingConsentContract.newPurpose( processingPurpose, _data, duration, 1 );\r\n        else\r\n            processingConsentContract.newPurpose( processingPurpose, _data, duration, 0 );\r\n\r\n    }\r\n\r\n\r\n    \r\n    /**\r\n     * @dev Consent contract enabled by the Data Subject and/or Data Controller. \r\n     */\r\n    function grantConsent() external {\r\n        require( tx.origin == controller ||  tx.origin == dataSubject, 'Actor not allowed to do this action.' );\r\n        \r\n        if( tx.origin == dataSubject ) valid[0] = 1;\r\n        else if( tx.origin == controller ) valid[1] = 1;\r\n    }\r\n    \r\n    /**\r\n     * @dev Consent contract revoked by the Data Subject and/or Data Controller. \r\n     */\r\n    function revokeConsent() external {\r\n        require( tx.origin == controller ||  tx.origin == dataSubject, 'Actor not allowed to do this action.' );\r\n        \r\n        if( tx.origin == dataSubject ) valid[0] = 0;\r\n        else if( tx.origin == controller ) valid[1] = 0;\r\n    }\r\n\r\n    /**\r\n     * @dev Returns the current state of this consent contract \r\n     */\r\n    function verify() external view returns( bool ) {\r\n        uint256 timestamp = block.timestamp;\r\n        bool isValid = valid[0] != 0 && valid[1] != 0 && timestamp >= beginningDate && timestamp <= expirationDate;\r\n        return isValid;\r\n    }\r\n\r\n    function eraseData() external onlyDataSubject{\r\n        erasure = true;\r\n    }\r\n\r\n\r\n    //TO BE RE-DEFINED.\r\n    /**\r\n     * @dev Modifies the data field. \r\n     */\r\n    function modifyData( uint _data ) external onlyDataSubject{\r\n        data = _data;\r\n        //shoudl be more complex, modifying the data field on all Processing SCs.\r\n    }\r\n\r\n    \r\n    //COMPLEX REVOKE CONSENT - EVALUATE THE PROCESSING COST\r\n    ////////////////////////////////////////////////////////////////////////////////////////////////////////////////////////////////////\r\n    /**\r\n     * @dev Revoke consent for all ProcessingConsent SC for a specific processing purpose. \r\n     */\r\n     function revokeConsentPurpose( uint purpose ) external onlyDataSubject{\r\n\r\n        address processor;\r\n        for( uint i=0; i < processors.length; i++ ){\r\n            processor =  processors[ i ];\r\n            //If purpose is not valid or it not exists, there is no sense on revoking it.\r\n            if( ProcessingConsent( processingConsentContracts[ processor ].processingConsentContractAddress ).verifyDS( purpose ) )\r\n                ProcessingConsent( processingConsentContracts[ processor ].processingConsentContractAddress ).revokeConsent( purpose );\r\n        }\r\n\r\n        //Remove element from the default purposes array\r\n        defaultPurposes[ purpose ] = false;\r\n     }\r\n\r\n\r\n    /**\r\n     * @dev Revoke consent for all ProcessingConsent SC for a specific processor. \r\n     */\r\n    function revokeConsentProcessor( address processor ) external onlyDataSubject{\r\n        require( processingConsentContracts[ processor ].exists, \"Processor is not processing DS's personal data for any purpose.\" );\r\n\r\n        ProcessingConsent( processingConsentContracts[ processor ].processingConsentContractAddress ).revokeAllConsents();\r\n        \r\n        //Add element to the processors blacklist\r\n        processorsBlacklist[ processor ] = true;\r\n    }\r\n    ////////////////////////////////////////////////////////////////////////////////////////////////////////////////////////////////////\r\n\r\n    /**\r\n     * @dev Returns which data fields can be collected \r\n     */\r\n    function getData() external view returns( uint256 ) {\r\n        return data;\r\n    }\r\n\r\n\r\n    /**\r\n     * @dev Returns the ProcessingConsent SC address of the specified processor, created from this contract.\r\n     */\r\n    function getProcessingConsentSC( address processor ) external view returns( address ){\r\n        require( processingConsentContracts[ processor ].exists, \"Processor has not requested to process DS's PD.\" );\r\n        return processingConsentContracts[ processor ].processingConsentContractAddress;\r\n    }\r\n\r\n\r\n    /**\r\n     * @dev Returns all processors that has requested to process DS's personal data.\r\n     */\r\n    function getAllProcessors() external view returns( address[] memory ){\r\n        return processors;\r\n    }\r\n\r\n\r\n    //////////////////////////////////////////////////////////////////////////////////////////////////////////\r\n\r\n\r\n    modifier onlyDataSubject(){\r\n        require( msg.sender == dataSubject, 'Only the data Subject is allowed to do this action.' );\r\n        _;\r\n    }\r\n    \r\n    modifier onlyController(){\r\n        require( msg.sender == controller, 'Only the data Controller is allowed to do this action.' );\r\n        _;\r\n    }\r\n    \r\n    modifier contractValidity(){\r\n        uint256 timestamp = block.timestamp;\r\n        require( valid[0] != 0 && valid[1] != 0 && timestamp >= beginningDate && timestamp <= expirationDate, 'Consent constract is not valid.' );\r\n        _;\r\n    }\r\n    \r\n   \r\n}",
  "sourcePath": "C:\\Users\\Durjoy\\Downloads\\ABT_Project\\BC_GDPR-Compliant_PDManagement_System\\contracts\\CollectionConsent.sol",
  "compiler": {
    "name": "solc",
    "version": "0.5.16+commit.9c3226ce.Emscripten.clang"
  },
  "schemaVersion": "3.4.16",
  "updatedAt": "2025-11-16T16:59:36.151Z",
  "devdoc": {
    "details": "Holds the explicit consent given to a collector to get personal data from a user \r ISSUE: transaction function can't return a value even if declared in the definition https://ethereum.stackexchange.com/questions/40730/why-is-web3j-java-not-generating-correct-return-types-for-my-contract",
    "methods": {
      "constructor": {
        "details": "Create a new consent contract between a Data Subject and a Controller.",
        "params": {
          "_dataController": "data controller address",
          "_defaultPurposes": "for which DS must do not give his explicit consent to process his PD",
          "_recipients": "list of the recipients that will hold the personal data of the Subject",
          "duration": "validity expiration time of the contract (in seconds)"
        }
      },
      "getAllProcessors()": {
        "details": "Returns all processors that has requested to process DS's personal data."
      },
      "getData()": {
        "details": "Returns which data fields can be collected "
      },
      "getProcessingConsentSC(address)": {
        "details": "Returns the ProcessingConsent SC address of the specified processor, created from this contract."
      },
      "grantConsent()": {
        "details": "Consent contract enabled by the Data Subject and/or Data Controller. "
      },
      "modifyData(uint256)": {
        "details": "Modifies the data field. "
      },
      "newPurpose(address,uint256,uint256,uint256)": {
        "details": "Create a new processing purpose for processor using dataSubject data and supervised by controller.",
        "params": {
          "duration": "validity expiration time of the contract (in seconds)",
          "processingPurpose": "processing purpose",
          "processor": "data processor address"
        }
      },
      "revokeConsent()": {
        "details": "Consent contract revoked by the Data Subject and/or Data Controller. "
      },
      "revokeConsentProcessor(address)": {
        "details": "Revoke consent for all ProcessingConsent SC for a specific processor. "
      },
      "revokeConsentPurpose(uint256)": {
        "details": "Revoke consent for all ProcessingConsent SC for a specific processing purpose. "
      },
      "verify()": {
        "details": "Returns the current state of this consent contract "
      }
    },
    "title": "CollectionConsent"
  },
  "userdoc": {
    "methods": {}
  }
}