{
  "contractName": "ProcessingConsent",
  "abi": [
    {
      "inputs": [
        {
          "internalType": "address",
          "name": "_controller",
          "type": "address"
        },
        {
          "internalType": "address",
          "name": "_dataSubject",
          "type": "address"
        },
        {
          "internalType": "address",
          "name": "_processor",
          "type": "address"
        }
      ],
      "payable": false,
      "stateMutability": "nonpayable",
      "type": "constructor"
    },
    {
      "constant": false,
      "inputs": [
        {
          "internalType": "uint256",
          "name": "_purpose",
          "type": "uint256"
        },
        {
          "internalType": "uint256",
          "name": "data",
          "type": "uint256"
        },
        {
          "internalType": "uint256",
          "name": "duration",
          "type": "uint256"
        },
        {
          "internalType": "uint256",
          "name": "defaultTrue",
          "type": "uint256"
        }
      ],
      "name": "newPurpose",
      "outputs": [],
      "payable": false,
      "stateMutability": "nonpayable",
      "type": "function"
    },
    {
      "constant": false,
      "inputs": [
        {
          "internalType": "uint256",
          "name": "_purpose",
          "type": "uint256"
        },
        {
          "internalType": "uint256",
          "name": "_data",
          "type": "uint256"
        }
      ],
      "name": "modifyData",
      "outputs": [],
      "payable": false,
      "stateMutability": "nonpayable",
      "type": "function"
    },
    {
      "constant": true,
      "inputs": [
        {
          "internalType": "uint256",
          "name": "_purpose",
          "type": "uint256"
        }
      ],
      "name": "verify",
      "outputs": [
        {
          "internalType": "bool",
          "name": "",
          "type": "bool"
        }
      ],
      "payable": false,
      "stateMutability": "view",
      "type": "function"
    },
    {
      "constant": true,
      "inputs": [
        {
          "internalType": "uint256",
          "name": "_purpose",
          "type": "uint256"
        }
      ],
      "name": "verifyDS",
      "outputs": [
        {
          "internalType": "bool",
          "name": "",
          "type": "bool"
        }
      ],
      "payable": false,
      "stateMutability": "view",
      "type": "function"
    },
    {
      "constant": true,
      "inputs": [
        {
          "internalType": "uint256",
          "name": "_purpose",
          "type": "uint256"
        }
      ],
      "name": "existsPurpose",
      "outputs": [
        {
          "internalType": "bool",
          "name": "",
          "type": "bool"
        }
      ],
      "payable": false,
      "stateMutability": "view",
      "type": "function"
    },
    {
      "constant": true,
      "inputs": [],
      "name": "getPurposes",
      "outputs": [
        {
          "internalType": "uint256[]",
          "name": "",
          "type": "uint256[]"
        }
      ],
      "payable": false,
      "stateMutability": "view",
      "type": "function"
    },
    {
      "constant": true,
      "inputs": [],
      "name": "getDataSubject",
      "outputs": [
        {
          "internalType": "address",
          "name": "",
          "type": "address"
        }
      ],
      "payable": false,
      "stateMutability": "view",
      "type": "function"
    },
    {
      "constant": true,
      "inputs": [],
      "name": "getController",
      "outputs": [
        {
          "internalType": "address",
          "name": "",
          "type": "address"
        }
      ],
      "payable": false,
      "stateMutability": "view",
      "type": "function"
    },
    {
      "constant": true,
      "inputs": [],
      "name": "getProcessor",
      "outputs": [
        {
          "internalType": "address",
          "name": "",
          "type": "address"
        }
      ],
      "payable": false,
      "stateMutability": "view",
      "type": "function"
    },
    {
      "constant": true,
      "inputs": [
        {
          "internalType": "uint256",
          "name": "_purpose",
          "type": "uint256"
        }
      ],
      "name": "getDataPurpose",
      "outputs": [
        {
          "internalType": "uint256",
          "name": "",
          "type": "uint256"
        }
      ],
      "payable": false,
      "stateMutability": "view",
      "type": "function"
    },
    {
      "constant": false,
      "inputs": [
        {
          "internalType": "uint256",
          "name": "_purpose",
          "type": "uint256"
        }
      ],
      "name": "grantConsent",
      "outputs": [],
      "payable": false,
      "stateMutability": "nonpayable",
      "type": "function"
    },
    {
      "constant": false,
      "inputs": [
        {
          "internalType": "uint256",
          "name": "_purpose",
          "type": "uint256"
        }
      ],
      "name": "revokeConsent",
      "outputs": [],
      "payable": false,
      "stateMutability": "nonpayable",
      "type": "function"
    },
    {
      "constant": false,
      "inputs": [],
      "name": "revokeAllConsents",
      "outputs": [],
      "payable": false,
      "stateMutability": "nonpayable",
      "type": "function"
    }
  ],
  "bytecode": "0x608060405234801561001057600080fd5b50604051611a61380380611a618339818101604052606081101561003357600080fd5b810190808051906020019092919080519060200190929190805190602001909291905050508273ffffffffffffffffffffffffffffffffffffffff163273ffffffffffffffffffffffffffffffffffffffff16146100dc576040517f08c379a0000000000000000000000000000000000000000000000000000000008152600401808060200182810382526036815260200180611a2b6036913960400191505060405180910390fd5b336000806101000a81548173ffffffffffffffffffffffffffffffffffffffff021916908373ffffffffffffffffffffffffffffffffffffffff16021790555082600260006101000a81548173ffffffffffffffffffffffffffffffffffffffff021916908373ffffffffffffffffffffffffffffffffffffffff16021790555081600160006101000a81548173ffffffffffffffffffffffffffffffffffffffff021916908373ffffffffffffffffffffffffffffffffffffffff16021790555080600360006101000a81548173ffffffffffffffffffffffffffffffffffffffff021916908373ffffffffffffffffffffffffffffffffffffffff16021790555050505061183a806101f16000396000f3fe608060405234801561001057600080fd5b50600436106100cf5760003560e01c80633018205f1161008c5780634265c707116100665780634265c7071461032f5780638753367f14610379578063b6f96af2146103bf578063b7a7af99146103c9576100cf565b80633018205f1461024e578063373eed8d146102985780633a728745146102d0576100cf565b80630561bac3146100d457806316a0042c1461011e5780632178543c1461014c5780632a22288e146101985780632a26de85146101de5780632e6473701461020c575b600080fd5b6100dc61040f565b604051808273ffffffffffffffffffffffffffffffffffffffff1673ffffffffffffffffffffffffffffffffffffffff16815260200191505060405180910390f35b61014a6004803603602081101561013457600080fd5b8101908080359060200190929190505050610439565b005b6101966004803603608081101561016257600080fd5b81019080803590602001909291908035906020019092919080359060200190929190803590602001909291905050506107e6565b005b6101c4600480360360208110156101ae57600080fd5b8101908080359060200190929190505050610adf565b604051808215151515815260200191505060405180910390f35b61020a600480360360208110156101f457600080fd5b8101908080359060200190929190505050610b1d565b005b6102386004803603602081101561022257600080fd5b8101908080359060200190929190505050610eca565b6040518082815260200191505060405180910390f35b610256610eea565b604051808273ffffffffffffffffffffffffffffffffffffffff1673ffffffffffffffffffffffffffffffffffffffff16815260200191505060405180910390f35b6102ce600480360360408110156102ae57600080fd5b810190808035906020019092919080359060200190929190505050610f14565b005b6102d8610fd9565b6040518080602001828103825283818151815260200191508051906020019060200280838360005b8381101561031b578082015181840152602081019050610300565b505050509050019250505060405180910390f35b610337611031565b604051808273ffffffffffffffffffffffffffffffffffffffff1673ffffffffffffffffffffffffffffffffffffffff16815260200191505060405180910390f35b6103a56004803603602081101561038f57600080fd5b810190808035906020019092919050505061105b565b604051808215151515815260200191505060405180910390f35b6103c76111dd565b005b6103f5600480360360208110156103df57600080fd5b81019080803590602001909291905050506114c0565b604051808215151515815260200191505060405180910390f35b6000600160009054906101000a900473ffffffffffffffffffffffffffffffffffffffff16905090565b600260009054906101000a900473ffffffffffffffffffffffffffffffffffffffff1673ffffffffffffffffffffffffffffffffffffffff163273ffffffffffffffffffffffffffffffffffffffff1614806104e25750600160009054906101000a900473ffffffffffffffffffffffffffffffffffffffff1673ffffffffffffffffffffffffffffffffffffffff163273ffffffffffffffffffffffffffffffffffffffff16145b8061053a5750600360009054906101000a900473ffffffffffffffffffffffffffffffffffffffff1673ffffffffffffffffffffffffffffffffffffffff163273ffffffffffffffffffffffffffffffffffffffff16145b61058f576040517f08c379a00000000000000000000000000000000000000000000000000000000081526004018080602001828103825260248152602001806117e26024913960400191505060405180910390fd5b6004600082815260200190815260200160002060000160009054906101000a900460ff16610608576040517f08c379a000000000000000000000000000000000000000000000000000000000815260040180806020018281038252602381526020018061173a6023913960400191505060405180910390fd5b600260009054906101000a900473ffffffffffffffffffffffffffffffffffffffff1673ffffffffffffffffffffffffffffffffffffffff163273ffffffffffffffffffffffffffffffffffffffff1614156106a75760006004600083815260200190815260200160002060040160006003811061068257fe5b602091828204019190066101000a81548160ff021916908360ff1602179055506107e3565b600160009054906101000a900473ffffffffffffffffffffffffffffffffffffffff1673ffffffffffffffffffffffffffffffffffffffff163273ffffffffffffffffffffffffffffffffffffffff1614156107465760006004600083815260200190815260200160002060040160016003811061072157fe5b602091828204019190066101000a81548160ff021916908360ff1602179055506107e2565b600360009054906101000a900473ffffffffffffffffffffffffffffffffffffffff1673ffffffffffffffffffffffffffffffffffffffff163273ffffffffffffffffffffffffffffffffffffffff1614156107e1576000600460008381526020019081526020016000206004016002600381106107c057fe5b602091828204019190066101000a81548160ff021916908360ff1602179055505b5b5b50565b6000809054906101000a900473ffffffffffffffffffffffffffffffffffffffff1673ffffffffffffffffffffffffffffffffffffffff163373ffffffffffffffffffffffffffffffffffffffff161461088b576040517f08c379a000000000000000000000000000000000000000000000000000000000815260040180806020018281038252606381526020018061177f6063913960800191505060405180910390fd5b600260009054906101000a900473ffffffffffffffffffffffffffffffffffffffff1673ffffffffffffffffffffffffffffffffffffffff163273ffffffffffffffffffffffffffffffffffffffff1614610931576040517f08c379a000000000000000000000000000000000000000000000000000000000815260040180806020018281038252603b8152602001806116aa603b913960400191505060405180910390fd5b6004600085815260200190815260200160002060000160009054906101000a900460ff16156109ab576040517f08c379a000000000000000000000000000000000000000000000000000000000815260040180806020018281038252602281526020018061175d6022913960400191505060405180910390fd5b6109b36115bd565b60018214156109ea576040518060600160405280600160ff168152602001600160ff168152602001600060ff168152509050610a14565b6040518060600160405280600160ff168152602001600060ff168152602001600060ff1681525090505b6040518060a001604052806001151581526020018581526020014281526020018442018152602001828152506004600087815260200190815260200160002060008201518160000160006101000a81548160ff021916908315150217905550602082015181600101556040820151816002015560608201518160030155608082015181600401906003610aa89291906115df565b5090505060058590806001815401808255809150509060018203906000526020600020016000909192909190915055505050505050565b60006004600083815260200190815260200160002060000160009054906101000a900460ff1615610b135760019050610b18565b600090505b919050565b600260009054906101000a900473ffffffffffffffffffffffffffffffffffffffff1673ffffffffffffffffffffffffffffffffffffffff163273ffffffffffffffffffffffffffffffffffffffff161480610bc65750600160009054906101000a900473ffffffffffffffffffffffffffffffffffffffff1673ffffffffffffffffffffffffffffffffffffffff163273ffffffffffffffffffffffffffffffffffffffff16145b80610c1e5750600360009054906101000a900473ffffffffffffffffffffffffffffffffffffffff1673ffffffffffffffffffffffffffffffffffffffff163273ffffffffffffffffffffffffffffffffffffffff16145b610c73576040517f08c379a00000000000000000000000000000000000000000000000000000000081526004018080602001828103825260248152602001806117e26024913960400191505060405180910390fd5b6004600082815260200190815260200160002060000160009054906101000a900460ff16610cec576040517f08c379a000000000000000000000000000000000000000000000000000000000815260040180806020018281038252602381526020018061173a6023913960400191505060405180910390fd5b600260009054906101000a900473ffffffffffffffffffffffffffffffffffffffff1673ffffffffffffffffffffffffffffffffffffffff163273ffffffffffffffffffffffffffffffffffffffff161415610d8b57600160046000838152602001908152602001600020600401600060038110610d6657fe5b602091828204019190066101000a81548160ff021916908360ff160217905550610ec7565b600160009054906101000a900473ffffffffffffffffffffffffffffffffffffffff1673ffffffffffffffffffffffffffffffffffffffff163273ffffffffffffffffffffffffffffffffffffffff161415610e2a57600160046000838152602001908152602001600020600401600160038110610e0557fe5b602091828204019190066101000a81548160ff021916908360ff160217905550610ec6565b600360009054906101000a900473ffffffffffffffffffffffffffffffffffffffff1673ffffffffffffffffffffffffffffffffffffffff163273ffffffffffffffffffffffffffffffffffffffff161415610ec557600160046000838152602001908152602001600020600401600260038110610ea457fe5b602091828204019190066101000a81548160ff021916908360ff1602179055505b5b5b50565b600060046000838152602001908152602001600020600101549050919050565b6000600260009054906101000a900473ffffffffffffffffffffffffffffffffffffffff16905090565b600160009054906101000a900473ffffffffffffffffffffffffffffffffffffffff1673ffffffffffffffffffffffffffffffffffffffff163273ffffffffffffffffffffffffffffffffffffffff1614610fba576040517f08c379a00000000000000000000000000000000000000000000000000000000081526004018080602001828103825260338152602001806116e56033913960400191505060405180910390fd5b8060046000848152602001908152602001600020600101819055505050565b6060600580548060200260200160405190810160405280929190818152602001828054801561102757602002820191906000526020600020905b815481526020019060010190808311611013575b5050505050905090565b6000600360009054906101000a900473ffffffffffffffffffffffffffffffffffffffff16905090565b60006004600083815260200190815260200160002060000160009054906101000a900460ff166110d6576040517f08c379a000000000000000000000000000000000000000000000000000000000815260040180806020018281038252602381526020018061173a6023913960400191505060405180910390fd5b60004290506000806004600086815260200190815260200160002060040160026003811061110057fe5b602091828204019190069054906101000a900460ff166004600087815260200190815260200160002060040160016003811061113857fe5b602091828204019190069054906101000a900460ff166004600088815260200190815260200160002060040160006003811061117057fe5b602091828204019190069054906101000a900460ff16161660ff16141580156111af575060046000858152602001908152602001600020600201548210155b80156111d1575060046000858152602001908152602001600020600301548211155b90508092505050919050565b600260009054906101000a900473ffffffffffffffffffffffffffffffffffffffff1673ffffffffffffffffffffffffffffffffffffffff163273ffffffffffffffffffffffffffffffffffffffff1614806112865750600160009054906101000a900473ffffffffffffffffffffffffffffffffffffffff1673ffffffffffffffffffffffffffffffffffffffff163273ffffffffffffffffffffffffffffffffffffffff16145b806112de5750600360009054906101000a900473ffffffffffffffffffffffffffffffffffffffff1673ffffffffffffffffffffffffffffffffffffffff163273ffffffffffffffffffffffffffffffffffffffff16145b611333576040517f08c379a00000000000000000000000000000000000000000000000000000000081526004018080602001828103825260248152602001806117e26024913960400191505060405180910390fd5b600060058054905011611391576040517f08c379a00000000000000000000000000000000000000000000000000000000081526004018080602001828103825260228152602001806117186022913960400191505060405180910390fd5b600260009054906101000a900473ffffffffffffffffffffffffffffffffffffffff1673ffffffffffffffffffffffffffffffffffffffff163273ffffffffffffffffffffffffffffffffffffffff1614156113f6576113f1600061153f565b6114be565b600160009054906101000a900473ffffffffffffffffffffffffffffffffffffffff1673ffffffffffffffffffffffffffffffffffffffff163273ffffffffffffffffffffffffffffffffffffffff16141561145b57611456600161153f565b6114bd565b600360009054906101000a900473ffffffffffffffffffffffffffffffffffffffff1673ffffffffffffffffffffffffffffffffffffffff163273ffffffffffffffffffffffffffffffffffffffff1614156114bc576114bb600261153f565b5b5b5b565b6000806004600084815260200190815260200160002060000160009054906101000a900460ff166114f45760009050611536565b60006004600085815260200190815260200160002060040160016003811061151857fe5b602091828204019190069054906101000a900460ff1660ff16141590505b80915050919050565b60008090505b6005805490508110156115b9576000600460006005848154811061156557fe5b90600052602060002001548152602001908152602001600020600401836003811061158c57fe5b602091828204019190066101000a81548160ff021916908360ff1602179055508080600101915050611545565b5050565b6040518060600160405280600390602082028038833980820191505090505090565b826003601f016020900481019282156116685791602002820160005b8382111561163957835183826101000a81548160ff021916908360ff16021790555092602001926001016020816000010492830192600103026115fb565b80156116665782816101000a81549060ff0219169055600101602081600001049283019260010302611639565b505b5090506116759190611679565b5090565b6116a691905b808211156116a257600081816101000a81549060ff02191690555060010161167f565b5090565b9056fe4f6e6c7920636f6e74726f6c6c65722063616e206164642061206e65772050726f63657373696e6720707572706f736520746f20746869732053434f6e6c79207468652064617461205375626a65637420697320616c6c6f77656420746f20646f207468697320616374696f6e2e4e6f2050726f63657373696e6720707572706f736573206f6e20746869732053432e50726f63657373696e6720707572706f736520646f6573206e6f74206578697374732e50726f63657373696e6720707572706f736520616c7265616479206578697374732e4e65772050726f63657373696e6720707572706f73652063616e206f6e6c792062652061646465642066726f6d2074686520436f6e73656e742053432066726f6d207768696368207468697320507572706f73652053432077617320637265617465644163746f72206e6f7420616c6c6f77656420746f20646f207468697320616374696f6e2ea265627a7a72315820d617c02aebedd6be44e70634a2bb17d78da27fdb50213c1a000d81f3eb3fa44364736f6c634300051000325472616e73616374696f6e2073656e64657220646f6573206e6f74206d617463687420776974682074686520436f6e74726f6c6c6572",
  "source": "pragma solidity >=0.4.22 <0.7.0;\r\n\r\n/** \r\n * @title ProcessingConsent\r\n * @dev Holds the explicit consent for a Processor to process the data of a Data Subject\r\n */\r\ncontract ProcessingConsent {\r\n   \r\n    address private collectionConsentSC;\r\n    address private dataSubject;\r\n    address private controller;\r\n    address private processor;\r\n\r\n    //Storing all processors and purposes for which they process the data.   \r\n    struct ProcessingPurposeStruct{\r\n        bool exists;\r\n        uint256 data;\r\n        uint256 beginningDate;\r\n        uint256 expirationDate;\r\n        uint8[3] valid;     //DC - DS - DP\r\n    }\r\n    mapping( uint => ProcessingPurposeStruct ) private purposes;\r\n    \r\n    uint[] private processingPurposes; \r\n\r\n    //Enum are explicitly convertible to and from all integer type. \r\n    //The options are represented by subsequent unsigned integer values starting from 0, in the order they are defined.\r\n    enum PURPOSE { ModelTraining, ModelTesting, Profiling, ImprovingService, Advertising }\r\n    \r\n\r\n    /** \r\n     * @dev Create a new purpose Smart Contract for processor using dataSubject's data and supervised by controller.\r\n     * @param _controller Controller address\r\n     * @param _dataSubject data Subject address\r\n     * @param _processor data processor address\r\n     */\r\n    constructor( address _controller, address _dataSubject, address _processor ) public {\r\n        require( tx.origin == _controller, \r\n            \"Transaction sender does not matcht with the Controller\");\r\n        collectionConsentSC = msg.sender;\r\n        controller = _controller;\r\n        dataSubject = _dataSubject;\r\n        processor = _processor;\r\n    }\r\n\r\n\r\n    /** \r\n     * @dev Add new prcessing purpose.\r\n     * @param _purpose processing purpose\r\n     * @param duration validity expiration time of the contract (in seconds)\r\n     * @param defaultTrue in the case the procesing purpose is on the DS's whitelist\r\n     */\r\n    function newPurpose( uint _purpose, uint data, uint duration, uint defaultTrue ) external{\r\n        //Can only be crated from the Consent SC adn by the Controller\r\n        require( msg.sender == collectionConsentSC, \r\n            \"New Processing purpose can only be added from the Consent SC from which this Purpose SC was created\" );\r\n        require( tx.origin == controller,\r\n            \"Only controller can add a new Processing purpose to this SC\" );\r\n        //chech if this purpose does not already exists\r\n        require( !purposes[ _purpose ].exists, \"Processing purpose already exists.\" );\r\n\r\n        uint8[3] memory valid;\r\n        if( defaultTrue==1 )\r\n            valid = [1,1,0];\r\n        else\r\n            valid = [1,0,0];\r\n\r\n        purposes[ _purpose ] = ProcessingPurposeStruct( \r\n            true, \r\n            data,\r\n            block.timestamp,\r\n            block.timestamp + duration,\r\n            valid );\r\n\r\n        processingPurposes.push( _purpose );\r\n    }\r\n    \r\n    \r\n    /**\r\n     * @dev Modifies whcih data can be processed for certain processing purpose\r\n     * @param _purpose processing purpose\r\n     * @param _data data that can be processed\r\n     */\r\n    function modifyData( uint _purpose, uint _data ) external onlyDataSubject{\r\n        purposes[ _purpose ].data = _data;\r\n    }\r\n\r\n    \r\n    /**\r\n     * @dev Returns the current state of this processing purpose\r\n     * @param _purpose processing purpose \r\n     */\r\n    function verify( uint _purpose ) external view returns(bool) {\r\n        require( purposes[ _purpose ].exists, \"Processing purpose does not exists.\" );\r\n\r\n        uint256 timestamp = block.timestamp;\r\n        bool isValid = (purposes[ _purpose ].valid[0] & \r\n                        purposes[ _purpose ].valid[1] & \r\n                        purposes[ _purpose ].valid[2] ) != 0 && \r\n                        timestamp >= purposes[ _purpose ].beginningDate && \r\n                        timestamp <= purposes[ _purpose ].expirationDate;\r\n        return isValid;\r\n    }\r\n\r\n    /**\r\n     * @dev Returns the current state of this processing purpose\r\n     * @param _purpose processing purpose \r\n     */\r\n    function verifyDS( uint _purpose ) external view returns(bool) {\r\n        bool exists;\r\n\r\n        if( !purposes[ _purpose ].exists )\r\n            exists = false;\r\n        else \r\n            exists = purposes[ _purpose ].valid[1] != 0;\r\n        return exists;\r\n    }\r\n\r\n\r\n    /**\r\n     * @dev Returns if processor has already requested to process DS's personal data for a certain purpose.\r\n     * @param _purpose processing purpose \r\n     */\r\n    function existsPurpose( uint _purpose ) external view returns(bool) {\r\n        if( purposes[ _purpose ].exists )\r\n            return true;\r\n        else\r\n            return false;\r\n    }\r\n\r\n\r\n\r\n    //GETTERS\r\n    function getPurposes() external view returns( uint[] memory ){\r\n        return processingPurposes;\r\n    }\r\n    function getDataSubject() external view returns( address ){\r\n        return dataSubject;\r\n    }\r\n    function getController() external view returns( address ){\r\n        return controller;\r\n    }\r\n    function getProcessor() external view returns( address ){\r\n        return processor;\r\n    }\r\n    function getDataPurpose( uint _purpose ) external view returns( uint256 ){\r\n        return purposes[ _purpose].data;\r\n    }\r\n\r\n    /**\r\n     * @dev Processing Consent valid. \r\n     */\r\n    function grantConsent( uint _purpose ) external{\r\n        require( tx.origin == controller ||  tx.origin == dataSubject || tx.origin == processor, 'Actor not allowed to do this action.' );\r\n        require( purposes[ _purpose ].exists, \"Processing purpose does not exists.\" );\r\n        \r\n        if( tx.origin == controller ) purposes[ _purpose ].valid[0] = 1;\r\n        else if( tx.origin == dataSubject ) purposes[ _purpose ].valid[1] = 1;\r\n        else if( tx.origin == processor) purposes[ _purpose ].valid[2] = 1;\r\n    }\r\n\r\n    \r\n    /**\r\n     * @dev Processing Consent revoked. \r\n     */\r\n    function revokeConsent( uint _purpose ) external{\r\n        require( tx.origin == controller ||  tx.origin == dataSubject || tx.origin == processor, 'Actor not allowed to do this action.' );\r\n        require( purposes[ _purpose ].exists, \"Processing purpose does not exists.\" );\r\n        \r\n        if( tx.origin == controller ) purposes[ _purpose ].valid[0] = 0;\r\n        else if( tx.origin == dataSubject ) purposes[ _purpose ].valid[1] = 0;\r\n        else if( tx.origin == processor) purposes[ _purpose ].valid[2] = 0;\r\n    }\r\n\r\n\r\n    /**\r\n     * @dev Processing Consent revoked. \r\n     */\r\n    function revokeAllConsents() external{\r\n        require( tx.origin == controller ||  tx.origin == dataSubject || tx.origin == processor, 'Actor not allowed to do this action.' );\r\n        require( processingPurposes.length > 0, \"No Processing purposes on this SC.\" );\r\n        \r\n        if( tx.origin == controller ) revokeAllConsentsAux(0);\r\n        else if( tx.origin == dataSubject ) revokeAllConsentsAux(1);\r\n        else if( tx.origin == processor) revokeAllConsentsAux(2);\r\n    }\r\n\r\n\r\n    function revokeAllConsentsAux( uint p ) private{\r\n        for( uint i=0; i < processingPurposes.length; i++){\r\n            purposes[ processingPurposes[i] ].valid[p] = 0;\r\n        }\r\n    }\r\n\r\n\r\n    \r\n    modifier onlyDataSubject(){\r\n        require( tx.origin == dataSubject, 'Only the data Subject is allowed to do this action.' );\r\n        _;\r\n    }\r\n    \r\n    modifier onlyController(){\r\n        require( tx.origin == controller, 'Only the data Controller is allowed to do this action.' );\r\n        _;\r\n    }\r\n\r\n    modifier onlyProcessor(){\r\n        require( tx.origin == processor, 'Only the processor is allowed to do this action.' );\r\n        _;\r\n    }\r\n    \r\n   \r\n}",
  "sourcePath": "C:\\Users\\Durjoy\\Downloads\\ABT_Project\\BC_GDPR-Compliant_PDManagement_System\\contracts\\ProcessingConsent.sol",
  "compiler": {
    "name": "solc",
    "version": "0.5.16+commit.9c3226ce.Emscripten.clang"
  },
  "schemaVersion": "3.4.16",
  "updatedAt": "2025-11-16T16:59:36.159Z",
  "devdoc": {
    "details": "Holds the explicit consent for a Processor to process the data of a Data Subject",
    "methods": {
      "constructor": {
        "details": "Create a new purpose Smart Contract for processor using dataSubject's data and supervised by controller.",
        "params": {
          "_controller": "Controller address",
          "_dataSubject": "data Subject address",
          "_processor": "data processor address"
        }
      },
      "existsPurpose(uint256)": {
        "details": "Returns if processor has already requested to process DS's personal data for a certain purpose.",
        "params": {
          "_purpose": "processing purpose "
        }
      },
      "grantConsent(uint256)": {
        "details": "Processing Consent valid. "
      },
      "modifyData(uint256,uint256)": {
        "details": "Modifies whcih data can be processed for certain processing purpose",
        "params": {
          "_data": "data that can be processed",
          "_purpose": "processing purpose"
        }
      },
      "newPurpose(uint256,uint256,uint256,uint256)": {
        "details": "Add new prcessing purpose.",
        "params": {
          "_purpose": "processing purpose",
          "defaultTrue": "in the case the procesing purpose is on the DS's whitelist",
          "duration": "validity expiration time of the contract (in seconds)"
        }
      },
      "revokeAllConsents()": {
        "details": "Processing Consent revoked. "
      },
      "revokeConsent(uint256)": {
        "details": "Processing Consent revoked. "
      },
      "verify(uint256)": {
        "details": "Returns the current state of this processing purpose",
        "params": {
          "_purpose": "processing purpose "
        }
      },
      "verifyDS(uint256)": {
        "details": "Returns the current state of this processing purpose",
        "params": {
          "_purpose": "processing purpose "
        }
      }
    },
    "title": "ProcessingConsent"
  },
  "userdoc": {
    "methods": {}
  }
}